{"abi":[{"type":"constructor","inputs":[{"name":"_name","type":"string","internalType":"string"},{"name":"_symbol","type":"string","internalType":"string"}],"stateMutability":"nonpayable"},{"type":"function","name":"approve","inputs":[{"name":"to","type":"address","internalType":"address"},{"name":"tokenId","type":"uint256","internalType":"uint256"}],"outputs":[],"stateMutability":"nonpayable"},{"type":"function","name":"balanceOf","inputs":[{"name":"","type":"address","internalType":"address"}],"outputs":[{"name":"","type":"uint256","internalType":"uint256"}],"stateMutability":"view"},{"type":"function","name":"burn","inputs":[{"name":"tokenId","type":"uint256","internalType":"uint256"}],"outputs":[],"stateMutability":"nonpayable"},{"type":"function","name":"getApproved","inputs":[{"name":"","type":"uint256","internalType":"uint256"}],"outputs":[{"name":"","type":"address","internalType":"address"}],"stateMutability":"view"},{"type":"function","name":"isApprovedForAll","inputs":[{"name":"","type":"address","internalType":"address"},{"name":"","type":"address","internalType":"address"}],"outputs":[{"name":"","type":"bool","internalType":"bool"}],"stateMutability":"view"},{"type":"function","name":"mint","inputs":[{"name":"to","type":"address","internalType":"address"}],"outputs":[{"name":"","type":"uint256","internalType":"uint256"}],"stateMutability":"nonpayable"},{"type":"function","name":"name","inputs":[],"outputs":[{"name":"","type":"string","internalType":"string"}],"stateMutability":"view"},{"type":"function","name":"nextTokenId","inputs":[],"outputs":[{"name":"","type":"uint256","internalType":"uint256"}],"stateMutability":"view"},{"type":"function","name":"owner","inputs":[],"outputs":[{"name":"","type":"address","internalType":"address"}],"stateMutability":"view"},{"type":"function","name":"ownerOf","inputs":[{"name":"","type":"uint256","internalType":"uint256"}],"outputs":[{"name":"","type":"address","internalType":"address"}],"stateMutability":"view"},{"type":"function","name":"safeTransferFrom","inputs":[{"name":"from","type":"address","internalType":"address"},{"name":"to","type":"address","internalType":"address"},{"name":"tokenId","type":"uint256","internalType":"uint256"}],"outputs":[],"stateMutability":"nonpayable"},{"type":"function","name":"safeTransferFrom","inputs":[{"name":"from","type":"address","internalType":"address"},{"name":"to","type":"address","internalType":"address"},{"name":"tokenId","type":"uint256","internalType":"uint256"},{"name":"","type":"bytes","internalType":"bytes"}],"outputs":[],"stateMutability":"nonpayable"},{"type":"function","name":"setApprovalForAll","inputs":[{"name":"operator","type":"address","internalType":"address"},{"name":"approved","type":"bool","internalType":"bool"}],"outputs":[],"stateMutability":"nonpayable"},{"type":"function","name":"symbol","inputs":[],"outputs":[{"name":"","type":"string","internalType":"string"}],"stateMutability":"view"},{"type":"function","name":"transferFrom","inputs":[{"name":"from","type":"address","internalType":"address"},{"name":"to","type":"address","internalType":"address"},{"name":"tokenId","type":"uint256","internalType":"uint256"}],"outputs":[],"stateMutability":"nonpayable"},{"type":"event","name":"Approval","inputs":[{"name":"owner","type":"address","indexed":true,"internalType":"address"},{"name":"approved","type":"address","indexed":true,"internalType":"address"},{"name":"tokenId","type":"uint256","indexed":true,"internalType":"uint256"}],"anonymous":false},{"type":"event","name":"ApprovalForAll","inputs":[{"name":"owner","type":"address","indexed":true,"internalType":"address"},{"name":"operator","type":"address","indexed":true,"internalType":"address"},{"name":"approved","type":"bool","indexed":false,"internalType":"bool"}],"anonymous":false},{"type":"event","name":"Transfer","inputs":[{"name":"from","type":"address","indexed":true,"internalType":"address"},{"name":"to","type":"address","indexed":true,"internalType":"address"},{"name":"tokenId","type":"uint256","indexed":true,"internalType":"uint256"}],"anonymous":false}],"bytecode":{"object":"0x60806040523480156200001157600080fd5b5060405162000e8738038062000e87833981016040819052620000349162000136565b818160006200004483826200022f565b5060016200005382826200022f565b5050600680546001600160a01b0319163317905550620002fb915050565b634e487b7160e01b600052604160045260246000fd5b600082601f8301126200009957600080fd5b81516001600160401b0380821115620000b657620000b662000071565b604051601f8301601f19908116603f01168101908282118183101715620000e157620000e162000071565b81604052838152602092508683858801011115620000fe57600080fd5b600091505b8382101562000122578582018301518183018401529082019062000103565b600093810190920192909252949350505050565b600080604083850312156200014a57600080fd5b82516001600160401b03808211156200016257600080fd5b620001708683870162000087565b935060208501519150808211156200018757600080fd5b50620001968582860162000087565b9150509250929050565b600181811c90821680620001b557607f821691505b602082108103620001d657634e487b7160e01b600052602260045260246000fd5b50919050565b601f8211156200022a57600081815260208120601f850160051c81016020861015620002055750805b601f850160051c820191505b81811015620002265782815560010162000211565b5050505b505050565b81516001600160401b038111156200024b576200024b62000071565b62000263816200025c8454620001a0565b84620001dc565b602080601f8311600181146200029b5760008415620002825750858301515b600019600386901b1c1916600185901b17855562000226565b600085815260208120601f198616915b82811015620002cc57888601518255948401946001909101908401620002ab565b5085821015620002eb5787850151600019600388901b60f8161c191681555b5050505050600190811b01905550565b610b7c806200030b6000396000f3fe608060405234801561001057600080fd5b50600436106100f55760003560e01c80636a6278421161009757806395d89b411161006657806395d89b411461022d578063a22cb46514610235578063b88d4fde14610248578063e985e9c51461025b57600080fd5b80636a627842146101d057806370a08231146101f157806375794a3c146102115780638da5cb5b1461021a57600080fd5b806323b872dd116100d357806323b872dd1461016e57806342842e0e1461018157806342966c68146101945780636352211e146101a757600080fd5b806306fdde03146100fa578063081812fc14610118578063095ea7b314610159575b600080fd5b610102610299565b60405161010f919061088e565b60405180910390f35b6101416101263660046108dc565b6004602052600090815260409020546001600160a01b031681565b6040516001600160a01b03909116815260200161010f565b61016c610167366004610911565b610327565b005b61016c61017c36600461093b565b61040e565b61016c61018f36600461093b565b6105a0565b61016c6101a23660046108dc565b6105b0565b6101416101b53660046108dc565b6002602052600090815260409020546001600160a01b031681565b6101e36101de366004610977565b6105f2565b60405190815260200161010f565b6101e36101ff366004610977565b60036020526000908152604090205481565b6101e360075481565b600654610141906001600160a01b031681565b610102610646565b61016c610243366004610999565b610653565b61016c6102563660046109d5565b6106bf565b610289610269366004610a70565b600560209081526000928352604080842090915290825290205460ff1681565b604051901515815260200161010f565b600080546102a690610aa3565b80601f01602080910402602001604051908101604052809291908181526020018280546102d290610aa3565b801561031f5780601f106102f45761010080835404028352916020019161031f565b820191906000526020600020905b81548152906001019060200180831161030257829003601f168201915b505050505081565b6000818152600260205260409020546001600160a01b03163381148061037057506001600160a01b038116600090815260056020908152604080832033845290915290205460ff165b6103b25760405162461bcd60e51b815260206004820152600e60248201526d139bdd08185d5d1a1bdc9a5e995960921b60448201526064015b60405180910390fd5b60008281526004602052604080822080546001600160a01b0319166001600160a01b0387811691821790925591518593918516917f8c5be1e5ebec7d5bd14f71427d1e84f3dd0314c0f7b2291e5b200ac8c7c3b92591a4505050565b6000818152600260205260409020546001600160a01b038481169116146104475760405162461bcd60e51b81526004016103a990610add565b336001600160a01b038416148061047457506000818152600460205260409020546001600160a01b031633145b806104a257506001600160a01b038316600090815260056020908152604080832033845290915290205460ff165b6104df5760405162461bcd60e51b815260206004820152600e60248201526d139bdd08185d5d1a1bdc9a5e995960921b60448201526064016103a9565b6001600160a01b038316600090815260036020526040812080549161050383610b16565b90915550506001600160a01b038216600090815260036020526040812080549161052c83610b2d565b9091555050600081815260026020908152604080832080546001600160a01b038088166001600160a01b031992831681179093556004909452828520805490911690559051849391928716917fddf252ad1be2c89b69c2b068fc378daa952ba7f163c4a11628f55a4df523b3ef91a4505050565b6105ab83838361040e565b505050565b6000818152600260205260409020546001600160a01b031633146105e65760405162461bcd60e51b81526004016103a990610add565b6105ef816106d1565b50565b6006546000906001600160a01b0316331461061f5760405162461bcd60e51b81526004016103a990610add565b600780546000918261063083610b2d565b91905055905061064083826107b6565b92915050565b600180546102a690610aa3565b3360008181526005602090815260408083206001600160a01b03871680855290835292819020805460ff191686151590811790915590519081529192917f17307eab39ab6107e8899845ad3d59bd9653f200f220920489ca2b5937696c31910160405180910390a35050565b6106ca85858561040e565b5050505050565b6000818152600260205260409020546001600160a01b0316806107235760405162461bcd60e51b815260206004820152600a602482015269139bdd081b5a5b9d195960b21b60448201526064016103a9565b6001600160a01b038116600090815260036020526040812080549161074783610b16565b9091555050600082815260026020908152604080832080546001600160a01b031990811690915560049092528083208054909216909155518391906001600160a01b038416907fddf252ad1be2c89b69c2b068fc378daa952ba7f163c4a11628f55a4df523b3ef908390a45050565b6000818152600260205260409020546001600160a01b03161561080c5760405162461bcd60e51b815260206004820152600e60248201526d105b1c9958591e481b5a5b9d195960921b60448201526064016103a9565b6001600160a01b038216600090815260036020526040812080549161083083610b2d565b909155505060008181526002602052604080822080546001600160a01b0319166001600160a01b03861690811790915590518392907fddf252ad1be2c89b69c2b068fc378daa952ba7f163c4a11628f55a4df523b3ef908290a45050565b600060208083528351808285015260005b818110156108bb5785810183015185820160400152820161089f565b506000604082860101526040601f19601f8301168501019250505092915050565b6000602082840312156108ee57600080fd5b5035919050565b80356001600160a01b038116811461090c57600080fd5b919050565b6000806040838503121561092457600080fd5b61092d836108f5565b946020939093013593505050565b60008060006060848603121561095057600080fd5b610959846108f5565b9250610967602085016108f5565b9150604084013590509250925092565b60006020828403121561098957600080fd5b610992826108f5565b9392505050565b600080604083850312156109ac57600080fd5b6109b5836108f5565b9150602083013580151581146109ca57600080fd5b809150509250929050565b6000806000806000608086880312156109ed57600080fd5b6109f6866108f5565b9450610a04602087016108f5565b935060408601359250606086013567ffffffffffffffff80821115610a2857600080fd5b818801915088601f830112610a3c57600080fd5b813581811115610a4b57600080fd5b896020828501011115610a5d57600080fd5b9699959850939650602001949392505050565b60008060408385031215610a8357600080fd5b610a8c836108f5565b9150610a9a602084016108f5565b90509250929050565b600181811c90821680610ab757607f821691505b602082108103610ad757634e487b7160e01b600052602260045260246000fd5b50919050565b6020808252600990820152682737ba1037bbb732b960b91b604082015260600190565b634e487b7160e01b600052601160045260246000fd5b600081610b2557610b25610b00565b506000190190565b600060018201610b3f57610b3f610b00565b506001019056fea2646970667358221220868023a8854d94ecdc1e698569b04576bac833035602ee841ff51d06368b45da64736f6c63430008140033","linkReferences":{}},"methodIdentifiers":{"approve(address,uint256)":"095ea7b3","balanceOf(address)":"70a08231","burn(uint256)":"42966c68","getApproved(uint256)":"081812fc","isApprovedForAll(address,address)":"e985e9c5","mint(address)":"6a627842","name()":"06fdde03","nextTokenId()":"75794a3c","owner()":"8da5cb5b","ownerOf(uint256)":"6352211e","safeTransferFrom(address,address,uint256)":"42842e0e","safeTransferFrom(address,address,uint256,bytes)":"b88d4fde","setApprovalForAll(address,bool)":"a22cb465","symbol()":"95d89b41","transferFrom(address,address,uint256)":"23b872dd"},"id":21}