{"abi":[{"type":"constructor","inputs":[{"name":"_name","type":"string","internalType":"string"},{"name":"_symbol","type":"string","internalType":"string"}],"stateMutability":"nonpayable"},{"type":"function","name":"approve","inputs":[{"name":"to","type":"address","internalType":"address"},{"name":"tokenId","type":"uint256","internalType":"uint256"}],"outputs":[],"stateMutability":"nonpayable"},{"type":"function","name":"balanceOf","inputs":[{"name":"","type":"address","internalType":"address"}],"outputs":[{"name":"","type":"uint256","internalType":"uint256"}],"stateMutability":"view"},{"type":"function","name":"getApproved","inputs":[{"name":"","type":"uint256","internalType":"uint256"}],"outputs":[{"name":"","type":"address","internalType":"address"}],"stateMutability":"view"},{"type":"function","name":"isApprovedForAll","inputs":[{"name":"","type":"address","internalType":"address"},{"name":"","type":"address","internalType":"address"}],"outputs":[{"name":"","type":"bool","internalType":"bool"}],"stateMutability":"view"},{"type":"function","name":"name","inputs":[],"outputs":[{"name":"","type":"string","internalType":"string"}],"stateMutability":"view"},{"type":"function","name":"ownerOf","inputs":[{"name":"","type":"uint256","internalType":"uint256"}],"outputs":[{"name":"","type":"address","internalType":"address"}],"stateMutability":"view"},{"type":"function","name":"safeTransferFrom","inputs":[{"name":"from","type":"address","internalType":"address"},{"name":"to","type":"address","internalType":"address"},{"name":"tokenId","type":"uint256","internalType":"uint256"}],"outputs":[],"stateMutability":"nonpayable"},{"type":"function","name":"safeTransferFrom","inputs":[{"name":"from","type":"address","internalType":"address"},{"name":"to","type":"address","internalType":"address"},{"name":"tokenId","type":"uint256","internalType":"uint256"},{"name":"","type":"bytes","internalType":"bytes"}],"outputs":[],"stateMutability":"nonpayable"},{"type":"function","name":"setApprovalForAll","inputs":[{"name":"operator","type":"address","internalType":"address"},{"name":"approved","type":"bool","internalType":"bool"}],"outputs":[],"stateMutability":"nonpayable"},{"type":"function","name":"symbol","inputs":[],"outputs":[{"name":"","type":"string","internalType":"string"}],"stateMutability":"view"},{"type":"function","name":"transferFrom","inputs":[{"name":"from","type":"address","internalType":"address"},{"name":"to","type":"address","internalType":"address"},{"name":"tokenId","type":"uint256","internalType":"uint256"}],"outputs":[],"stateMutability":"nonpayable"},{"type":"event","name":"Approval","inputs":[{"name":"owner","type":"address","indexed":true,"internalType":"address"},{"name":"approved","type":"address","indexed":true,"internalType":"address"},{"name":"tokenId","type":"uint256","indexed":true,"internalType":"uint256"}],"anonymous":false},{"type":"event","name":"ApprovalForAll","inputs":[{"name":"owner","type":"address","indexed":true,"internalType":"address"},{"name":"operator","type":"address","indexed":true,"internalType":"address"},{"name":"approved","type":"bool","indexed":false,"internalType":"bool"}],"anonymous":false},{"type":"event","name":"Transfer","inputs":[{"name":"from","type":"address","indexed":true,"internalType":"address"},{"name":"to","type":"address","indexed":true,"internalType":"address"},{"name":"tokenId","type":"uint256","indexed":true,"internalType":"uint256"}],"anonymous":false}],"bytecode":{"object":"0x60806040523480156200001157600080fd5b5060405162000b8838038062000b8883398101604081905262000034916200011f565b600062000042838262000218565b50600162000051828262000218565b505050620002e4565b634e487b7160e01b600052604160045260246000fd5b600082601f8301126200008257600080fd5b81516001600160401b03808211156200009f576200009f6200005a565b604051601f8301601f19908116603f01168101908282118183101715620000ca57620000ca6200005a565b81604052838152602092508683858801011115620000e757600080fd5b600091505b838210156200010b5785820183015181830184015290820190620000ec565b600093810190920192909252949350505050565b600080604083850312156200013357600080fd5b82516001600160401b03808211156200014b57600080fd5b620001598683870162000070565b935060208501519150808211156200017057600080fd5b506200017f8582860162000070565b9150509250929050565b600181811c908216806200019e57607f821691505b602082108103620001bf57634e487b7160e01b600052602260045260246000fd5b50919050565b601f8211156200021357600081815260208120601f850160051c81016020861015620001ee5750805b601f850160051c820191505b818110156200020f57828155600101620001fa565b5050505b505050565b81516001600160401b038111156200023457620002346200005a565b6200024c8162000245845462000189565b84620001c5565b602080601f8311600181146200028457600084156200026b5750858301515b600019600386901b1c1916600185901b1785556200020f565b600085815260208120601f198616915b82811015620002b55788860151825594840194600190910190840162000294565b5085821015620002d45787850151600019600388901b60f8161c191681555b5050505050600190811b01905550565b61089480620002f46000396000f3fe608060405234801561001057600080fd5b50600436106100a95760003560e01c80636352211e116100715780636352211e1461014857806370a082311461017157806395d89b411461019f578063a22cb465146101a7578063b88d4fde146101ba578063e985e9c5146101cd57600080fd5b806306fdde03146100ae578063081812fc146100cc578063095ea7b31461010d57806323b872dd1461012257806342842e0e14610135575b600080fd5b6100b661020b565b6040516100c391906105c9565b60405180910390f35b6100f56100da366004610617565b6004602052600090815260409020546001600160a01b031681565b6040516001600160a01b0390911681526020016100c3565b61012061011b36600461064c565b610299565b005b610120610130366004610676565b610380565b610120610143366004610676565b61052e565b6100f5610156366004610617565b6002602052600090815260409020546001600160a01b031681565b61019161017f3660046106b2565b60036020526000908152604090205481565b6040519081526020016100c3565b6100b661053e565b6101206101b53660046106d4565b61054b565b6101206101c8366004610710565b6105b7565b6101fb6101db3660046107ab565b600560209081526000928352604080842090915290825290205460ff1681565b60405190151581526020016100c3565b60008054610218906107de565b80601f0160208091040260200160405190810160405280929190818152602001828054610244906107de565b80156102915780601f1061026657610100808354040283529160200191610291565b820191906000526020600020905b81548152906001019060200180831161027457829003601f168201915b505050505081565b6000818152600260205260409020546001600160a01b0316338114806102e257506001600160a01b038116600090815260056020908152604080832033845290915290205460ff165b6103245760405162461bcd60e51b815260206004820152600e60248201526d139bdd08185d5d1a1bdc9a5e995960921b60448201526064015b60405180910390fd5b60008281526004602052604080822080546001600160a01b0319166001600160a01b0387811691821790925591518593918516917f8c5be1e5ebec7d5bd14f71427d1e84f3dd0314c0f7b2291e5b200ac8c7c3b92591a4505050565b6000818152600260205260409020546001600160a01b038481169116146103d55760405162461bcd60e51b81526020600482015260096024820152682737ba1037bbb732b960b91b604482015260640161031b565b336001600160a01b038416148061040257506000818152600460205260409020546001600160a01b031633145b8061043057506001600160a01b038316600090815260056020908152604080832033845290915290205460ff165b61046d5760405162461bcd60e51b815260206004820152600e60248201526d139bdd08185d5d1a1bdc9a5e995960921b604482015260640161031b565b6001600160a01b03831660009081526003602052604081208054916104918361082e565b90915550506001600160a01b03821660009081526003602052604081208054916104ba83610845565b9091555050600081815260026020908152604080832080546001600160a01b038088166001600160a01b031992831681179093556004909452828520805490911690559051849391928716917fddf252ad1be2c89b69c2b068fc378daa952ba7f163c4a11628f55a4df523b3ef91a4505050565b610539838383610380565b505050565b60018054610218906107de565b3360008181526005602090815260408083206001600160a01b03871680855290835292819020805460ff191686151590811790915590519081529192917f17307eab39ab6107e8899845ad3d59bd9653f200f220920489ca2b5937696c31910160405180910390a35050565b6105c2858585610380565b5050505050565b600060208083528351808285015260005b818110156105f6578581018301518582016040015282016105da565b506000604082860101526040601f19601f8301168501019250505092915050565b60006020828403121561062957600080fd5b5035919050565b80356001600160a01b038116811461064757600080fd5b919050565b6000806040838503121561065f57600080fd5b61066883610630565b946020939093013593505050565b60008060006060848603121561068b57600080fd5b61069484610630565b92506106a260208501610630565b9150604084013590509250925092565b6000602082840312156106c457600080fd5b6106cd82610630565b9392505050565b600080604083850312156106e757600080fd5b6106f083610630565b91506020830135801515811461070557600080fd5b809150509250929050565b60008060008060006080868803121561072857600080fd5b61073186610630565b945061073f60208701610630565b935060408601359250606086013567ffffffffffffffff8082111561076357600080fd5b818801915088601f83011261077757600080fd5b81358181111561078657600080fd5b89602082850101111561079857600080fd5b9699959850939650602001949392505050565b600080604083850312156107be57600080fd5b6107c783610630565b91506107d560208401610630565b90509250929050565b600181811c908216806107f257607f821691505b60208210810361081257634e487b7160e01b600052602260045260246000fd5b50919050565b634e487b7160e01b600052601160045260246000fd5b60008161083d5761083d610818565b506000190190565b60006001820161085757610857610818565b506001019056fea2646970667358221220d4b867d629091f67cbb0c85d30d8db32233ac68330b14176d1184590e1717c7364736f6c63430008140033","linkReferences":{}},"methodIdentifiers":{"approve(address,uint256)":"095ea7b3","balanceOf(address)":"70a08231","getApproved(uint256)":"081812fc","isApprovedForAll(address,address)":"e985e9c5","name()":"06fdde03","ownerOf(uint256)":"6352211e","safeTransferFrom(address,address,uint256)":"42842e0e","safeTransferFrom(address,address,uint256,bytes)":"b88d4fde","setApprovalForAll(address,bool)":"a22cb465","symbol()":"95d89b41","transferFrom(address,address,uint256)":"23b872dd"},"id":21}