{"abi":[{"type":"function","name":"balanceOf","inputs":[{"name":"","type":"uint256","internalType":"uint256"},{"name":"","type":"address","internalType":"address"}],"outputs":[{"name":"","type":"uint256","internalType":"uint256"}],"stateMutability":"view"},{"type":"function","name":"balanceOfBatch","inputs":[{"name":"accounts","type":"address[]","internalType":"address[]"},{"name":"ids","type":"uint256[]","internalType":"uint256[]"}],"outputs":[{"name":"","type":"uint256[]","internalType":"uint256[]"}],"stateMutability":"view"},{"type":"function","name":"isApprovedForAll","inputs":[{"name":"","type":"address","internalType":"address"},{"name":"","type":"address","internalType":"address"}],"outputs":[{"name":"","type":"bool","internalType":"bool"}],"stateMutability":"view"},{"type":"function","name":"safeBatchTransferFrom","inputs":[{"name":"from","type":"address","internalType":"address"},{"name":"to","type":"address","internalType":"address"},{"name":"ids","type":"uint256[]","internalType":"uint256[]"},{"name":"amounts","type":"uint256[]","internalType":"uint256[]"},{"name":"","type":"bytes","internalType":"bytes"}],"outputs":[],"stateMutability":"nonpayable"},{"type":"function","name":"safeTransferFrom","inputs":[{"name":"from","type":"address","internalType":"address"},{"name":"to","type":"address","internalType":"address"},{"name":"id","type":"uint256","internalType":"uint256"},{"name":"amount","type":"uint256","internalType":"uint256"},{"name":"","type":"bytes","internalType":"bytes"}],"outputs":[],"stateMutability":"nonpayable"},{"type":"function","name":"setApprovalForAll","inputs":[{"name":"operator","type":"address","internalType":"address"},{"name":"approved","type":"bool","internalType":"bool"}],"outputs":[],"stateMutability":"nonpayable"},{"type":"event","name":"ApprovalForAll","inputs":[{"name":"account","type":"address","indexed":true,"internalType":"address"},{"name":"operator","type":"address","indexed":true,"internalType":"address"},{"name":"approved","type":"bool","indexed":false,"internalType":"bool"}],"anonymous":false},{"type":"event","name":"TransferBatch","inputs":[{"name":"operator","type":"address","indexed":true,"internalType":"address"},{"name":"from","type":"address","indexed":true,"internalType":"address"},{"name":"to","type":"address","indexed":true,"internalType":"address"},{"name":"ids","type":"uint256[]","indexed":false,"internalType":"uint256[]"},{"name":"values","type":"uint256[]","indexed":false,"internalType":"uint256[]"}],"anonymous":false},{"type":"event","name":"TransferSingle","inputs":[{"name":"operator","type":"address","indexed":true,"internalType":"address"},{"name":"from","type":"address","indexed":true,"internalType":"address"},{"name":"to","type":"address","indexed":true,"internalType":"address"},{"name":"id","type":"uint256","indexed":false,"internalType":"uint256"},{"name":"value","type":"uint256","indexed":false,"internalType":"uint256"}],"anonymous":false},{"type":"event","name":"URI","inputs":[{"name":"value","type":"string","indexed":false,"internalType":"string"},{"name":"id","type":"uint256","indexed":true,"internalType":"uint256"}],"anonymous":false}],"bytecode":{"object":"0x608060405234801561001057600080fd5b50610ab5806100206000396000f3fe608060405234801561001057600080fd5b50600436106100625760003560e01c80632eb2c2d6146100675780633656eec21461007c5780634e1273f4146100b7578063a22cb465146100d7578063e985e9c5146100ea578063f242432a14610128575b600080fd5b61007a6100753660046106fd565b61013b565b005b6100a461008a3660046107b8565b600060208181529281526040808220909352908152205481565b6040519081526020015b60405180910390f35b6100ca6100c53660046107e4565b610371565b6040516100ae9190610850565b61007a6100e5366004610894565b6104b3565b6101186100f83660046108d0565b600160209081526000928352604080842090915290825290205460ff1681565b60405190151581526020016100ae565b61007a6101363660046108fa565b61051f565b336001600160a01b038916148061017557506001600160a01b038816600090815260016020908152604080832033845290915290205460ff165b6101b75760405162461bcd60e51b815260206004820152600e60248201526d139bdd08185d5d1a1bdc9a5e995960921b60448201526064015b60405180910390fd5b8483146101f85760405162461bcd60e51b815260206004820152600f60248201526e098cadccee8d040dad2e6dac2e8c6d608b1b60448201526064016101ae565b60005b8581101561030b5784848281811061021557610215610972565b9050602002013560008089898581811061023157610231610972565b90506020020135815260200190815260200160002060008b6001600160a01b03166001600160a01b031681526020019081526020016000206000828254610278919061099e565b90915550859050848281811061029057610290610972565b905060200201356000808989858181106102ac576102ac610972565b90506020020135815260200190815260200160002060008a6001600160a01b03166001600160a01b0316815260200190815260200160002060008282546102f391906109b7565b90915550819050610303816109ca565b9150506101fb565b50866001600160a01b0316886001600160a01b0316336001600160a01b03167f4a39dc06d4c0dbc64b70af90fd698a233a518aa5d07e595d983b8c0526c8f7fb8989898960405161035f9493929190610a15565b60405180910390a45050505050505050565b60608382146103b45760405162461bcd60e51b815260206004820152600f60248201526e098cadccee8d040dad2e6dac2e8c6d608b1b60448201526064016101ae565b60008467ffffffffffffffff8111156103cf576103cf610a47565b6040519080825280602002602001820160405280156103f8578160200160208202803683370190505b50905060005b858110156104a95760008086868481811061041b5761041b610972565b905060200201358152602001908152602001600020600088888481811061044457610444610972565b90506020020160208101906104599190610a5d565b6001600160a01b03166001600160a01b031681526020019081526020016000205482828151811061048c5761048c610972565b6020908102919091010152806104a1816109ca565b9150506103fe565b5095945050505050565b3360008181526001602090815260408083206001600160a01b03871680855290835292819020805460ff191686151590811790915590519081529192917f17307eab39ab6107e8899845ad3d59bd9653f200f220920489ca2b5937696c31910160405180910390a35050565b336001600160a01b038716148061055957506001600160a01b038616600090815260016020908152604080832033845290915290205460ff165b6105965760405162461bcd60e51b815260206004820152600e60248201526d139bdd08185d5d1a1bdc9a5e995960921b60448201526064016101ae565b6000848152602081815260408083206001600160a01b038a168452909152812080548592906105c690849061099e565b90915550506000848152602081815260408083206001600160a01b0389168452909152812080548592906105fb9084906109b7565b909155505060408051858152602081018590526001600160a01b03808816929089169133917fc3d58168c5ae7397731d063d5bbf3d657854427343f4c083240f7aacaa2d0f62910160405180910390a4505050505050565b80356001600160a01b038116811461066a57600080fd5b919050565b60008083601f84011261068157600080fd5b50813567ffffffffffffffff81111561069957600080fd5b6020830191508360208260051b85010111156106b457600080fd5b9250929050565b60008083601f8401126106cd57600080fd5b50813567ffffffffffffffff8111156106e557600080fd5b6020830191508360208285010111156106b457600080fd5b60008060008060008060008060a0898b03121561071957600080fd5b61072289610653565b975061073060208a01610653565b9650604089013567ffffffffffffffff8082111561074d57600080fd5b6107598c838d0161066f565b909850965060608b013591508082111561077257600080fd5b61077e8c838d0161066f565b909650945060808b013591508082111561079757600080fd5b506107a48b828c016106bb565b999c989b5096995094979396929594505050565b600080604083850312156107cb57600080fd5b823591506107db60208401610653565b90509250929050565b600080600080604085870312156107fa57600080fd5b843567ffffffffffffffff8082111561081257600080fd5b61081e8883890161066f565b9096509450602087013591508082111561083757600080fd5b506108448782880161066f565b95989497509550505050565b6020808252825182820181905260009190848201906040850190845b818110156108885783518352928401929184019160010161086c565b50909695505050505050565b600080604083850312156108a757600080fd5b6108b083610653565b9150602083013580151581146108c557600080fd5b809150509250929050565b600080604083850312156108e357600080fd5b6108ec83610653565b91506107db60208401610653565b60008060008060008060a0878903121561091357600080fd5b61091c87610653565b955061092a60208801610653565b94506040870135935060608701359250608087013567ffffffffffffffff81111561095457600080fd5b61096089828a016106bb565b979a9699509497509295939492505050565b634e487b7160e01b600052603260045260246000fd5b634e487b7160e01b600052601160045260246000fd5b818103818111156109b1576109b1610988565b92915050565b808201808211156109b1576109b1610988565b6000600182016109dc576109dc610988565b5060010190565b81835260006001600160fb1b038311156109fc57600080fd5b8260051b80836020870137939093016020019392505050565b604081526000610a296040830186886109e3565b8281036020840152610a3c8185876109e3565b979650505050505050565b634e487b7160e01b600052604160045260246000fd5b600060208284031215610a6f57600080fd5b610a7882610653565b939250505056fea2646970667358221220d0c1b3b64c5369343f4c390597520e84640d89fed6a6c98cb7dfd75db38a69a964736f6c63430008140033","linkReferences":{}},"methodIdentifiers":{"balanceOf(uint256,address)":"3656eec2","balanceOfBatch(address[],uint256[])":"4e1273f4","isApprovedForAll(address,address)":"e985e9c5","safeBatchTransferFrom(address,address,uint256[],uint256[],bytes)":"2eb2c2d6","safeTransferFrom(address,address,uint256,uint256,bytes)":"f242432a","setApprovalForAll(address,bool)":"a22cb465"},"id":19}