{"abi":[{"type":"constructor","inputs":[],"stateMutability":"nonpayable"},{"type":"function","name":"balanceOf","inputs":[{"name":"","type":"uint256","internalType":"uint256"},{"name":"","type":"address","internalType":"address"}],"outputs":[{"name":"","type":"uint256","internalType":"uint256"}],"stateMutability":"view"},{"type":"function","name":"balanceOfBatch","inputs":[{"name":"accounts","type":"address[]","internalType":"address[]"},{"name":"ids","type":"uint256[]","internalType":"uint256[]"}],"outputs":[{"name":"","type":"uint256[]","internalType":"uint256[]"}],"stateMutability":"view"},{"type":"function","name":"burn","inputs":[{"name":"id","type":"uint256","internalType":"uint256"},{"name":"amount","type":"uint256","internalType":"uint256"}],"outputs":[],"stateMutability":"nonpayable"},{"type":"function","name":"isApprovedForAll","inputs":[{"name":"","type":"address","internalType":"address"},{"name":"","type":"address","internalType":"address"}],"outputs":[{"name":"","type":"bool","internalType":"bool"}],"stateMutability":"view"},{"type":"function","name":"mint","inputs":[{"name":"to","type":"address","internalType":"address"},{"name":"id","type":"uint256","internalType":"uint256"},{"name":"amount","type":"uint256","internalType":"uint256"}],"outputs":[],"stateMutability":"nonpayable"},{"type":"function","name":"owner","inputs":[],"outputs":[{"name":"","type":"address","internalType":"address"}],"stateMutability":"view"},{"type":"function","name":"safeBatchTransferFrom","inputs":[{"name":"from","type":"address","internalType":"address"},{"name":"to","type":"address","internalType":"address"},{"name":"ids","type":"uint256[]","internalType":"uint256[]"},{"name":"amounts","type":"uint256[]","internalType":"uint256[]"},{"name":"","type":"bytes","internalType":"bytes"}],"outputs":[],"stateMutability":"nonpayable"},{"type":"function","name":"safeTransferFrom","inputs":[{"name":"from","type":"address","internalType":"address"},{"name":"to","type":"address","internalType":"address"},{"name":"id","type":"uint256","internalType":"uint256"},{"name":"amount","type":"uint256","internalType":"uint256"},{"name":"","type":"bytes","internalType":"bytes"}],"outputs":[],"stateMutability":"nonpayable"},{"type":"function","name":"setApprovalForAll","inputs":[{"name":"operator","type":"address","internalType":"address"},{"name":"approved","type":"bool","internalType":"bool"}],"outputs":[],"stateMutability":"nonpayable"},{"type":"function","name":"setURI","inputs":[{"name":"id","type":"uint256","internalType":"uint256"},{"name":"tokenURI","type":"string","internalType":"string"}],"outputs":[],"stateMutability":"nonpayable"},{"type":"function","name":"uri","inputs":[{"name":"id","type":"uint256","internalType":"uint256"}],"outputs":[{"name":"","type":"string","internalType":"string"}],"stateMutability":"view"},{"type":"event","name":"ApprovalForAll","inputs":[{"name":"account","type":"address","indexed":true,"internalType":"address"},{"name":"operator","type":"address","indexed":true,"internalType":"address"},{"name":"approved","type":"bool","indexed":false,"internalType":"bool"}],"anonymous":false},{"type":"event","name":"TransferBatch","inputs":[{"name":"operator","type":"address","indexed":true,"internalType":"address"},{"name":"from","type":"address","indexed":true,"internalType":"address"},{"name":"to","type":"address","indexed":true,"internalType":"address"},{"name":"ids","type":"uint256[]","indexed":false,"internalType":"uint256[]"},{"name":"values","type":"uint256[]","indexed":false,"internalType":"uint256[]"}],"anonymous":false},{"type":"event","name":"TransferSingle","inputs":[{"name":"operator","type":"address","indexed":true,"internalType":"address"},{"name":"from","type":"address","indexed":true,"internalType":"address"},{"name":"to","type":"address","indexed":true,"internalType":"address"},{"name":"id","type":"uint256","indexed":false,"internalType":"uint256"},{"name":"value","type":"uint256","indexed":false,"internalType":"uint256"}],"anonymous":false},{"type":"event","name":"URI","inputs":[{"name":"value","type":"string","indexed":false,"internalType":"string"},{"name":"id","type":"uint256","indexed":true,"internalType":"uint256"}],"anonymous":false}],"bytecode":{"object":"0x608060405234801561001057600080fd5b50600280546001600160a01b031916331790556110a9806100326000396000f3fe608060405234801561001057600080fd5b50600436106100a95760003560e01c8063862440e211610071578063862440e2146101555780638da5cb5b14610168578063a22cb46514610193578063b390c0ab146101a6578063e985e9c5146101b9578063f242432a146101f757600080fd5b80630e89341c146100ae578063156e29f6146100d75780632eb2c2d6146100ec5780633656eec2146100ff5780634e1273f414610135575b600080fd5b6100c16100bc3660046109c7565b61020a565b6040516100ce91906109e0565b60405180910390f35b6100ea6100e5366004610a4a565b6102ac565b005b6100ea6100fa366004610b0b565b610307565b61012761010d366004610bc6565b600060208181529281526040808220909352908152205481565b6040519081526020016100ce565b610148610143366004610bf2565b610538565b6040516100ce9190610c5e565b6100ea610163366004610ca2565b61067a565b60025461017b906001600160a01b031681565b6040516001600160a01b0390911681526020016100ce565b6100ea6101a1366004610cee565b610719565b6100ea6101b4366004610d2a565b610785565b6101e76101c7366004610d4c565b600160209081526000928352604080842090915290825290205460ff1681565b60405190151581526020016100ce565b6100ea610205366004610d76565b610794565b600081815260036020526040902080546060919061022790610dee565b80601f016020809104026020016040519081016040528092919081815260200182805461025390610dee565b80156102a05780601f10610275576101008083540402835291602001916102a0565b820191906000526020600020905b81548152906001019060200180831161028357829003601f168201915b50505050509050919050565b6002546001600160a01b031633146102f75760405162461bcd60e51b81526020600482015260096024820152682737ba1037bbb732b960b91b60448201526064015b60405180910390fd5b6103028383836108c8565b505050565b336001600160a01b038916148061034157506001600160a01b038816600090815260016020908152604080832033845290915290205460ff165b61037e5760405162461bcd60e51b815260206004820152600e60248201526d139bdd08185d5d1a1bdc9a5e995960921b60448201526064016102ee565b8483146103bf5760405162461bcd60e51b815260206004820152600f60248201526e098cadccee8d040dad2e6dac2e8c6d608b1b60448201526064016102ee565b60005b858110156104d2578484828181106103dc576103dc610e28565b905060200201356000808989858181106103f8576103f8610e28565b90506020020135815260200190815260200160002060008b6001600160a01b03166001600160a01b03168152602001908152602001600020600082825461043f9190610e54565b90915550859050848281811061045757610457610e28565b9050602002013560008089898581811061047357610473610e28565b90506020020135815260200190815260200160002060008a6001600160a01b03166001600160a01b0316815260200190815260200160002060008282546104ba9190610e6d565b909155508190506104ca81610e80565b9150506103c2565b50866001600160a01b0316886001600160a01b0316336001600160a01b03167f4a39dc06d4c0dbc64b70af90fd698a233a518aa5d07e595d983b8c0526c8f7fb898989896040516105269493929190610ecb565b60405180910390a45050505050505050565b606083821461057b5760405162461bcd60e51b815260206004820152600f60248201526e098cadccee8d040dad2e6dac2e8c6d608b1b60448201526064016102ee565b60008467ffffffffffffffff81111561059657610596610efd565b6040519080825280602002602001820160405280156105bf578160200160208202803683370190505b50905060005b85811015610670576000808686848181106105e2576105e2610e28565b905060200201358152602001908152602001600020600088888481811061060b5761060b610e28565b90506020020160208101906106209190610f13565b6001600160a01b03166001600160a01b031681526020019081526020016000205482828151811061065357610653610e28565b60209081029190910101528061066881610e80565b9150506105c5565b5095945050505050565b6002546001600160a01b031633146106c05760405162461bcd60e51b81526020600482015260096024820152682737ba1037bbb732b960b91b60448201526064016102ee565b60008381526003602052604090206106d9828483610f83565b50827f6bb7ff708619ba0610cba295a58592e0451dee2622938c8755667688daf3529b838360405161070c929190611044565b60405180910390a2505050565b3360008181526001602090815260408083206001600160a01b03871680855290835292819020805460ff191686151590811790915590519081529192917f17307eab39ab6107e8899845ad3d59bd9653f200f220920489ca2b5937696c31910160405180910390a35050565b61079033838361094c565b5050565b336001600160a01b03871614806107ce57506001600160a01b038616600090815260016020908152604080832033845290915290205460ff165b61080b5760405162461bcd60e51b815260206004820152600e60248201526d139bdd08185d5d1a1bdc9a5e995960921b60448201526064016102ee565b6000848152602081815260408083206001600160a01b038a1684529091528120805485929061083b908490610e54565b90915550506000848152602081815260408083206001600160a01b038916845290915281208054859290610870908490610e6d565b909155505060408051858152602081018590526001600160a01b03808816929089169133917fc3d58168c5ae7397731d063d5bbf3d657854427343f4c083240f7aacaa2d0f62910160405180910390a4505050505050565b6000828152602081815260408083206001600160a01b0387168452909152812080548392906108f8908490610e6d565b909155505060408051838152602081018390526001600160a01b0385169160009133917fc3d58168c5ae7397731d063d5bbf3d657854427343f4c083240f7aacaa2d0f6291015b60405180910390a4505050565b6000828152602081815260408083206001600160a01b03871684529091528120805483929061097c908490610e54565b909155505060408051838152602081018390526000916001600160a01b0386169133917fc3d58168c5ae7397731d063d5bbf3d657854427343f4c083240f7aacaa2d0f62910161093f565b6000602082840312156109d957600080fd5b5035919050565b600060208083528351808285015260005b81811015610a0d578581018301518582016040015282016109f1565b506000604082860101526040601f19601f8301168501019250505092915050565b80356001600160a01b0381168114610a4557600080fd5b919050565b600080600060608486031215610a5f57600080fd5b610a6884610a2e565b95602085013595506040909401359392505050565b60008083601f840112610a8f57600080fd5b50813567ffffffffffffffff811115610aa757600080fd5b6020830191508360208260051b8501011115610ac257600080fd5b9250929050565b60008083601f840112610adb57600080fd5b50813567ffffffffffffffff811115610af357600080fd5b602083019150836020828501011115610ac257600080fd5b60008060008060008060008060a0898b031215610b2757600080fd5b610b3089610a2e565b9750610b3e60208a01610a2e565b9650604089013567ffffffffffffffff80821115610b5b57600080fd5b610b678c838d01610a7d565b909850965060608b0135915080821115610b8057600080fd5b610b8c8c838d01610a7d565b909650945060808b0135915080821115610ba557600080fd5b50610bb28b828c01610ac9565b999c989b5096995094979396929594505050565b60008060408385031215610bd957600080fd5b82359150610be960208401610a2e565b90509250929050565b60008060008060408587031215610c0857600080fd5b843567ffffffffffffffff80821115610c2057600080fd5b610c2c88838901610a7d565b90965094506020870135915080821115610c4557600080fd5b50610c5287828801610a7d565b95989497509550505050565b6020808252825182820181905260009190848201906040850190845b81811015610c9657835183529284019291840191600101610c7a565b50909695505050505050565b600080600060408486031215610cb757600080fd5b83359250602084013567ffffffffffffffff811115610cd557600080fd5b610ce186828701610ac9565b9497909650939450505050565b60008060408385031215610d0157600080fd5b610d0a83610a2e565b915060208301358015158114610d1f57600080fd5b809150509250929050565b60008060408385031215610d3d57600080fd5b50508035926020909101359150565b60008060408385031215610d5f57600080fd5b610d6883610a2e565b9150610be960208401610a2e565b60008060008060008060a08789031215610d8f57600080fd5b610d9887610a2e565b9550610da660208801610a2e565b94506040870135935060608701359250608087013567ffffffffffffffff811115610dd057600080fd5b610ddc89828a01610ac9565b979a9699509497509295939492505050565b600181811c90821680610e0257607f821691505b602082108103610e2257634e487b7160e01b600052602260045260246000fd5b50919050565b634e487b7160e01b600052603260045260246000fd5b634e487b7160e01b600052601160045260246000fd5b81810381811115610e6757610e67610e3e565b92915050565b80820180821115610e6757610e67610e3e565b600060018201610e9257610e92610e3e565b5060010190565b81835260006001600160fb1b03831115610eb257600080fd5b8260051b80836020870137939093016020019392505050565b604081526000610edf604083018688610e99565b8281036020840152610ef2818587610e99565b979650505050505050565b634e487b7160e01b600052604160045260246000fd5b600060208284031215610f2557600080fd5b610f2e82610a2e565b9392505050565b601f82111561030257600081815260208120601f850160051c81016020861015610f5c5750805b601f850160051c820191505b81811015610f7b57828155600101610f68565b505050505050565b67ffffffffffffffff831115610f9b57610f9b610efd565b610faf83610fa98354610dee565b83610f35565b6000601f841160018114610fe35760008515610fcb5750838201355b600019600387901b1c1916600186901b17835561103d565b600083815260209020601f19861690835b828110156110145786850135825560209485019460019092019101610ff4565b50868210156110315760001960f88860031b161c19848701351681555b505060018560011b0183555b5050505050565b60208152816020820152818360408301376000818301604090810191909152601f909201601f1916010191905056fea2646970667358221220d4dc9e06c12305e924767d737c8a39b7bd7a15692a09009b429703efca39a6d264736f6c63430008140033","linkReferences":{}},"methodIdentifiers":{"balanceOf(uint256,address)":"3656eec2","balanceOfBatch(address[],uint256[])":"4e1273f4","burn(uint256,uint256)":"b390c0ab","isApprovedForAll(address,address)":"e985e9c5","mint(address,uint256,uint256)":"156e29f6","owner()":"8da5cb5b","safeBatchTransferFrom(address,address,uint256[],uint256[],bytes)":"2eb2c2d6","safeTransferFrom(address,address,uint256,uint256,bytes)":"f242432a","setApprovalForAll(address,bool)":"a22cb465","setURI(uint256,string)":"862440e2","uri(uint256)":"0e89341c"},"id":19}