{"abi":[{"type":"constructor","inputs":[{"name":"_name","type":"string","internalType":"string"},{"name":"_symbol","type":"string","internalType":"string"}],"stateMutability":"nonpayable"},{"type":"function","name":"allowance","inputs":[{"name":"","type":"address","internalType":"address"},{"name":"","type":"address","internalType":"address"}],"outputs":[{"name":"","type":"uint256","internalType":"uint256"}],"stateMutability":"view"},{"type":"function","name":"approve","inputs":[{"name":"spender","type":"address","internalType":"address"},{"name":"amount","type":"uint256","internalType":"uint256"}],"outputs":[{"name":"","type":"bool","internalType":"bool"}],"stateMutability":"nonpayable"},{"type":"function","name":"balanceOf","inputs":[{"name":"","type":"address","internalType":"address"}],"outputs":[{"name":"","type":"uint256","internalType":"uint256"}],"stateMutability":"view"},{"type":"function","name":"burn","inputs":[{"name":"amount","type":"uint256","internalType":"uint256"}],"outputs":[],"stateMutability":"nonpayable"},{"type":"function","name":"decimals","inputs":[],"outputs":[{"name":"","type":"uint8","internalType":"uint8"}],"stateMutability":"view"},{"type":"function","name":"mint","inputs":[{"name":"to","type":"address","internalType":"address"},{"name":"amount","type":"uint256","internalType":"uint256"}],"outputs":[],"stateMutability":"nonpayable"},{"type":"function","name":"name","inputs":[],"outputs":[{"name":"","type":"string","internalType":"string"}],"stateMutability":"view"},{"type":"function","name":"owner","inputs":[],"outputs":[{"name":"","type":"address","internalType":"address"}],"stateMutability":"view"},{"type":"function","name":"symbol","inputs":[],"outputs":[{"name":"","type":"string","internalType":"string"}],"stateMutability":"view"},{"type":"function","name":"totalSupply","inputs":[],"outputs":[{"name":"","type":"uint256","internalType":"uint256"}],"stateMutability":"view"},{"type":"function","name":"transfer","inputs":[{"name":"to","type":"address","internalType":"address"},{"name":"amount","type":"uint256","internalType":"uint256"}],"outputs":[{"name":"","type":"bool","internalType":"bool"}],"stateMutability":"nonpayable"},{"type":"function","name":"transferFrom","inputs":[{"name":"from","type":"address","internalType":"address"},{"name":"to","type":"address","internalType":"address"},{"name":"amount","type":"uint256","internalType":"uint256"}],"outputs":[{"name":"","type":"bool","internalType":"bool"}],"stateMutability":"nonpayable"},{"type":"event","name":"Approval","inputs":[{"name":"owner","type":"address","indexed":true,"internalType":"address"},{"name":"spender","type":"address","indexed":true,"internalType":"address"},{"name":"value","type":"uint256","indexed":false,"internalType":"uint256"}],"anonymous":false},{"type":"event","name":"Transfer","inputs":[{"name":"from","type":"address","indexed":true,"internalType":"address"},{"name":"to","type":"address","indexed":true,"internalType":"address"},{"name":"value","type":"uint256","indexed":false,"internalType":"uint256"}],"anonymous":false}],"bytecode":{"object":"0x60806040523480156200001157600080fd5b5060405162000ab538038062000ab583398101604081905262000034916200014d565b81816012600062000046848262000246565b50600162000055838262000246565b506002805460ff90921660ff199092169190911790555050600680546001600160a01b0319163317905550620003129050565b634e487b7160e01b600052604160045260246000fd5b600082601f830112620000b057600080fd5b81516001600160401b0380821115620000cd57620000cd62000088565b604051601f8301601f19908116603f01168101908282118183101715620000f857620000f862000088565b816040528381526020925086838588010111156200011557600080fd5b600091505b838210156200013957858201830151818301840152908201906200011a565b600093810190920192909252949350505050565b600080604083850312156200016157600080fd5b82516001600160401b03808211156200017957600080fd5b62000187868387016200009e565b935060208501519150808211156200019e57600080fd5b50620001ad858286016200009e565b9150509250929050565b600181811c90821680620001cc57607f821691505b602082108103620001ed57634e487b7160e01b600052602260045260246000fd5b50919050565b601f8211156200024157600081815260208120601f850160051c810160208610156200021c5750805b601f850160051c820191505b818110156200023d5782815560010162000228565b5050505b505050565b81516001600160401b0381111562000262576200026262000088565b6200027a81620002738454620001b7565b84620001f3565b602080601f831160018114620002b25760008415620002995750858301515b600019600386901b1c1916600185901b1785556200023d565b600085815260208120601f198616915b82811015620002e357888601518255948401946001909101908401620002c2565b5085821015620003025787850151600019600388901b60f8161c191681555b5050505050600190811b01905550565b61079380620003226000396000f3fe608060405234801561001057600080fd5b50600436106100b45760003560e01c806342966c681161007157806342966c681461015857806370a082311461016b5780638da5cb5b1461018b57806395d89b41146101b6578063a9059cbb146101be578063dd62ed3e146101d157600080fd5b806306fdde03146100b9578063095ea7b3146100d757806318160ddd146100fa57806323b872dd14610111578063313ce5671461012457806340c10f1914610143575b600080fd5b6100c16101fc565b6040516100ce91906105b0565b60405180910390f35b6100ea6100e536600461061a565b61028a565b60405190151581526020016100ce565b61010360035481565b6040519081526020016100ce565b6100ea61011f366004610644565b6102f7565b6002546101319060ff1681565b60405160ff90911681526020016100ce565b61015661015136600461061a565b610367565b005b610156610166366004610680565b6103bf565b610103610179366004610699565b60046020526000908152604090205481565b60065461019e906001600160a01b031681565b6040516001600160a01b0390911681526020016100ce565b6100c16103cc565b6100ea6101cc36600461061a565b6103d9565b6101036101df3660046106b4565b600560209081526000928352604080842090915290825290205481565b60008054610209906106e7565b80601f0160208091040260200160405190810160405280929190818152602001828054610235906106e7565b80156102825780601f1061025757610100808354040283529160200191610282565b820191906000526020600020905b81548152906001019060200180831161026557829003601f168201915b505050505081565b3360008181526005602090815260408083206001600160a01b038716808552925280832085905551919290917f8c5be1e5ebec7d5bd14f71427d1e84f3dd0314c0f7b2291e5b200ac8c7c3b925906102e59086815260200190565b60405180910390a35060015b92915050565b6001600160a01b038316600090815260056020908152604080832033845290915281205460001981146103535761032e8382610737565b6001600160a01b03861660009081526005602090815260408083203384529091529020555b61035e8585856103ed565b95945050505050565b6006546001600160a01b031633146103b15760405162461bcd60e51b81526020600482015260096024820152682737ba1037bbb732b960b91b604482015260640160405180910390fd5b6103bb82826104a2565b5050565b6103c9338261052c565b50565b60018054610209906106e7565b60006103e63384846103ed565b9392505050565b6001600160a01b038316600090815260046020526040812080548391908390610417908490610737565b90915550506001600160a01b0383166000908152600460205260408120805484929061044490849061074a565b92505081905550826001600160a01b0316846001600160a01b03167fddf252ad1be2c89b69c2b068fc378daa952ba7f163c4a11628f55a4df523b3ef8460405161049091815260200190565b60405180910390a35060019392505050565b80600360008282546104b4919061074a565b90915550506001600160a01b038216600090815260046020526040812080548392906104e190849061074a565b90915550506040518181526001600160a01b038316906000907fddf252ad1be2c89b69c2b068fc378daa952ba7f163c4a11628f55a4df523b3ef906020015b60405180910390a35050565b6001600160a01b03821660009081526004602052604081208054839290610554908490610737565b92505081905550806003600082825461056d9190610737565b90915550506040518181526000906001600160a01b038416907fddf252ad1be2c89b69c2b068fc378daa952ba7f163c4a11628f55a4df523b3ef90602001610520565b600060208083528351808285015260005b818110156105dd578581018301518582016040015282016105c1565b506000604082860101526040601f19601f8301168501019250505092915050565b80356001600160a01b038116811461061557600080fd5b919050565b6000806040838503121561062d57600080fd5b610636836105fe565b946020939093013593505050565b60008060006060848603121561065957600080fd5b610662846105fe565b9250610670602085016105fe565b9150604084013590509250925092565b60006020828403121561069257600080fd5b5035919050565b6000602082840312156106ab57600080fd5b6103e6826105fe565b600080604083850312156106c757600080fd5b6106d0836105fe565b91506106de602084016105fe565b90509250929050565b600181811c908216806106fb57607f821691505b60208210810361071b57634e487b7160e01b600052602260045260246000fd5b50919050565b634e487b7160e01b600052601160045260246000fd5b818103818111156102f1576102f1610721565b808201808211156102f1576102f161072156fea2646970667358221220e2754762759c684ee51e22c95c35da1bc4ecfb9d5c76222ff099b49a5ef0dd5e64736f6c63430008140033","linkReferences":{}},"methodIdentifiers":{"allowance(address,address)":"dd62ed3e","approve(address,uint256)":"095ea7b3","balanceOf(address)":"70a08231","burn(uint256)":"42966c68","decimals()":"313ce567","mint(address,uint256)":"40c10f19","name()":"06fdde03","owner()":"8da5cb5b","symbol()":"95d89b41","totalSupply()":"18160ddd","transfer(address,uint256)":"a9059cbb","transferFrom(address,address,uint256)":"23b872dd"},"id":20}